{
  "contractName": "MiddlemanFactory",
  "abi": [
    {
      "anonymous": false,
      "inputs": [
        {
          "indexed": false,
          "internalType": "address",
          "name": "creator",
          "type": "address"
        },
        {
          "indexed": false,
          "internalType": "contract Middleman",
          "name": "middleman",
          "type": "address"
        },
        {
          "indexed": false,
          "internalType": "uint256",
          "name": "timestamp",
          "type": "uint256"
        }
      ],
      "name": "MiddlemanCreated",
      "type": "event"
    },
    {
      "constant": false,
      "inputs": [
        {
          "internalType": "bool",
          "name": "isMiddleman",
          "type": "bool"
        }
      ],
      "name": "createMiddleman",
      "outputs": [],
      "payable": false,
      "stateMutability": "nonpayable",
      "type": "function"
    }
  ],
  "bytecode": "0x608060405234801561001057600080fd5b50610878806100206000396000f3fe608060405234801561001057600080fd5b506004361061002b5760003560e01c8063e3d510ad14610030575b600080fd5b61005e6004803603602081101561004657600080fd5b81019080803515159060200190929190505050610060565b005b6000813360405161007090610173565b80831515151581526020018273ffffffffffffffffffffffffffffffffffffffff1673ffffffffffffffffffffffffffffffffffffffff16815260200192505050604051809103906000f0801580156100cd573d6000803e3d6000fd5b5090507f6d6a4af68e417aa935a7ab31b07dfeb781cddbcd0745d23f96ac743c97a06d56338242604051808473ffffffffffffffffffffffffffffffffffffffff1673ffffffffffffffffffffffffffffffffffffffff1681526020018373ffffffffffffffffffffffffffffffffffffffff1673ffffffffffffffffffffffffffffffffffffffff168152602001828152602001935050505060405180910390a15050565b6106c3806101818339019056fe60806040526000600460006101000a81548173ffffffffffffffffffffffffffffffffffffffff021916908373ffffffffffffffffffffffffffffffffffffffff1602179055506000600560006101000a81548173ffffffffffffffffffffffffffffffffffffffff021916908373ffffffffffffffffffffffffffffffffffffffff1602179055506000600660006101000a81548173ffffffffffffffffffffffffffffffffffffffff021916908373ffffffffffffffffffffffffffffffffffffffff1602179055506000600760006101000a81548173ffffffffffffffffffffffffffffffffffffffff021916908373ffffffffffffffffffffffffffffffffffffffff16021790555034801561011857600080fd5b506040516106c33803806106c38339818101604052604081101561013b57600080fd5b810190808051906020019092919080519060200190929190505050600073ffffffffffffffffffffffffffffffffffffffff168173ffffffffffffffffffffffffffffffffffffffff16141561031d57816101d65780600460006101000a81548173ffffffffffffffffffffffffffffffffffffffff021916908373ffffffffffffffffffffffffffffffffffffffff16021790555061031e565b600073ffffffffffffffffffffffffffffffffffffffff16600760009054906101000a900473ffffffffffffffffffffffffffffffffffffffff1673ffffffffffffffffffffffffffffffffffffffff16141561026f5733600760006101000a81548173ffffffffffffffffffffffffffffffffffffffff021916908373ffffffffffffffffffffffffffffffffffffffff1602179055505b80600560006101000a81548173ffffffffffffffffffffffffffffffffffffffff021916908373ffffffffffffffffffffffffffffffffffffffff16021790555080600660006101000a81548173ffffffffffffffffffffffffffffffffffffffff021916908373ffffffffffffffffffffffffffffffffffffffff16021790555060008060006101000a81548160ff0219169083600381111561030f57fe5b021790555060326008819055505b5b50506103948061032f6000396000f3fe608060405234801561001057600080fd5b50600436106100625760003560e01c806308551a53146100675780631b8f2fde146100b1578063438a0b32146100fb57806353903fca14610119578063c19d93fb1461016a578063f2a4a82e14610196575b600080fd5b61006f610220565b604051808273ffffffffffffffffffffffffffffffffffffffff1673ffffffffffffffffffffffffffffffffffffffff16815260200191505060405180910390f35b6100b9610246565b604051808273ffffffffffffffffffffffffffffffffffffffff1673ffffffffffffffffffffffffffffffffffffffff16815260200191505060405180910390f35b61010361026c565b6040518082815260200191505060405180910390f35b610121610272565b604051808373ffffffffffffffffffffffffffffffffffffffff1673ffffffffffffffffffffffffffffffffffffffff1681526020018281526020019250505060405180910390f35b6101726102a3565b6040518082600381111561018257fe5b60ff16815260200191505060405180910390f35b61019e6102b5565b6040518080602001838152602001828103825284818151815260200191508051906020019080838360005b838110156101e45780820151818401526020810190506101c9565b50505050905090810190601f1680156102115780820380516001836020036101000a031916815260200191505b50935050505060405180910390f35b600460009054906101000a900473ffffffffffffffffffffffffffffffffffffffff1681565b600560009054906101000a900473ffffffffffffffffffffffffffffffffffffffff1681565b60085481565b600080600560009054906101000a900473ffffffffffffffffffffffffffffffffffffffff16600854915091509091565b6000809054906101000a900460ff1681565b6001806000018054600181600116156101000203166002900480601f01602080910402602001604051908101604052809291908181526020018280546001816001161561010002031660029004801561034f5780601f106103245761010080835404028352916020019161034f565b820191906000526020600020905b81548152906001019060200180831161033257829003601f168201915b505050505090806001015490508256fea265627a7a72315820882e0acb8754139081ca35442093b361a2195c6055606addea626e0b4a0f62bb64736f6c63430005100032a265627a7a72315820aa933af499dbbfe3c8a85ad5b207c30c5d8cb7e90b5609ba76088e7686595f6664736f6c63430005100032",
  "source": "pragma solidity ^0.5.2;\r\n\r\nlibrary SharedStructs {\r\n    struct File {\r\n        bytes32 reason;\r\n        string name;\r\n        string ipfshash; // ipfs id\r\n    }\r\n\r\n    struct TradeItem {\r\n        string name;\r\n        uint price;\r\n        File[] files;\r\n    }\r\n}\r\n\r\ncontract MiddlemanFactory {\r\n\r\n    event MiddlemanCreated(address creator, Middleman middleman, uint timestamp);\r\n\r\n    function createMiddleman(bool isMiddleman) public {\r\n        Middleman newContract = new Middleman(isMiddleman, msg.sender);\r\n        emit MiddlemanCreated(msg.sender, newContract, block.timestamp);\r\n    }\r\n}\r\n\r\ncontract Middleman {\r\n    enum State { Created, Validated, Deleted, Finished }\r\n    State public state;\r\n    SharedStructs.TradeItem public item;\r\n\r\n    address public seller = address(0);\r\n    address public middleman = address(0);\r\n\r\n    address creator = address(0);\r\n    address factory = address(0);\r\n\r\n    uint constant defaultFee = 50;\r\n    uint public middlemanFee;\r\n\r\n    event PurchaseConfirmed(address buyer);\r\n    event ItemReceived();\r\n\r\n    constructor(bool isMiddleman, address _creator) public {\r\n        if(_creator == address(0)){\r\n            if (!isMiddleman) {\r\n                seller = _creator;\r\n                return;\r\n            }\r\n\r\n            if(factory == address(0)){\r\n                factory = msg.sender;\r\n            }\r\n\r\n            middleman = _creator;\r\n            creator = _creator; //TODO: Stupid code tomas, remove this shit\r\n            state = State.Created;\r\n            middlemanFee = defaultFee;\r\n        }\r\n    }\r\n\r\n    function getMiddleman() public view returns(address, uint) {\r\n        return (middleman, middlemanFee);\r\n    }\r\n}",
  "sourcePath": "/home/tomas/middleman-eth/contracts/Middleman.sol",
  "compiler": {
    "name": "solc",
    "version": "0.5.16+commit.9c3226ce.Emscripten.clang"
  },
  "schemaVersion": "3.4.1",
  "updatedAt": "2021-05-29T03:33:54.885Z",
  "devdoc": {
    "methods": {}
  },
  "userdoc": {
    "methods": {}
  }
}